:020000040800F2
:10800000102000208D860008A9860008AD86000893
:10801000B1860008B5860008B98600080000000097
:10802000000000000000000000000000BD86000805
:10803000C186000800000000C5860008C986000847
:10804000CD860008D1860008D5860008D9860008AC
:10805000DD860008E1860008E5860008E98600085C
:10806000ED860008F1860008F5860008F98600080C
:10807000FD860008018700080587000809870008B9
:108080000D87000811870008158700081987000868
:108090001D87000821870008258700082987000818
:1080A0002D870008318700083587000839870008C8
:1080B0003D87000841870008458700084987000878
:1080C0004D87000851870008558700085987000828
:1080D0005D870008618700086587000869870008D8
:1080E0006D87000871870008758700087987000888
:1080F0007D87000881870008858700088987000838
:108100008D870008918700089587000899870008E7
:108110009D870008A1870008A5870008A987000897
:10812000AD870008B1870008B5870008B987000847
:10813000BD870008C1870008C5870008C9870008F7
:10814000CD870008D1870008D5870008D9870008A7
:10815000DD870008E1870008E5870008E987000857
:10816000ED870008F1870008F5870008F987000807
:10817000FD870008018800080588000809880008B4
:108180000D8800081188000880B53C48016851F44A
:10819000700101603A49086850F001000860002051
:1081A000384A10600A68384802400A603748384A3E
:1081B0001060086830F480200860002035490860AD
:1081C00000F005F85FF000603349086001BD82B03F
:1081D00000200190002000902949086850F4803068
:1081E0000860086810F4003000900198401C01906D
:1081F0000098002803D10198B0F5A06FF1D108686C
:10820000800302D50120009001E00020009000983A
:1082100001282FD12148026852F080520260204884
:10822000026852F4804202601648026802600268E6
:1082300052F400420260026852F4A0520260194AED
:10824000134B1A600A6852F080720A600A68920141
:10825000FCD540F20561144A116001688908890063
:108260000160016851F002010160016811F00C0128
:108270000829FAD102B070470000000088ED00E044
:108280000038024008380240FFFFF6FE103000249C
:10829000043802400C38024008ED00E0403802404B
:1082A0000070004008544004003C024038B588B0DB
:1082B00004000D00002D3BD1002C39D172E03C4868
:1082C000016831F00401016005984FF4FA51B0FBE8
:1082D000F1F14FF4FA7041433648016015E004A80B
:1082E00000F06CF8059831498842E8D230480168BE
:1082F00051F00401016005984FF47A71B0FBF1F17F
:108300004FF4FA7041432B48016000202A4908606D
:108310002748016851F0010101600168C903FCD5DB
:108320000168490849000160B4F5FA7475F1000567
:1083300040F2F51000218D4203D301D8844200D3CE
:10834000CDE7684600F03AF80198184988420DD206
:108350001748016851F00401016001984FF47A71E7
:10836000B0FBF1F06043134908600CE0104801686D
:1083700031F00401016001984FF4FA51B0FBF1F0C3
:1083800060430C49086000200B49086008480168F8
:1083900051F0010101600168C903FCD50168490879
:1083A0004900016009B030BD0000000000127A00F1
:1083B00010E000E014E000E018E000E010B400215C
:1083C00000210021022100210221DFF8C4201168D0
:1083D00011F00C01002904D0042906D0082908D086
:1083E0002BE0DFF8B410016029E0DFF8B010016085
:1083F00025E0DFF8A0402168C1F38051236813F025
:108400003F03002908D0DFF89410B1FBF3F3216893
:10841000C1F388114B4307E0DFF87C10B1FBF3F3A5
:108420002168C1F388114B432168C1F30141491C04
:108430004900B3FBF1F1016001E0174901601168E7
:1084400011F0F0010909164B595C0468CC404460F6
:10845000116811F4E051890A595C4468CC40846089
:10846000116811F46041490B595C4268CA40C2600E
:1084700010BC7047C9B2002904D00A490A681043E9
:10848000086004E007490A6832EA000008607047A3
:1084900008380240043802400024F40000127A0038
:1084A0000000002030380240F0B4002200220022F8
:1084B000002349E0012414FA03F20D6815409542A7
:1084C00041D1032502681E00F6B2760015FA06F6C1
:1084D000B243026006680F791A00D2B25200974088
:1084E0003E4306600A79012A02D00A79022A1AD18B
:1084F00082681E00F6B2760015FA06F6B243826074
:1085000086684F791A00D2B2520097403E43866087
:1085100042689C4032EA0404446042688C799C4082
:10852000A4B222434260C4681A00D2B252009540FD
:1085300034EA0505C560C468CD791A00D2B252008C
:1085400095402C43C4605B1C102BB3D3F0BC704728
:10855000426989B251404161704730B40EE002680F
:10856000436802440830DC0744BFA9F10104E31862
:1085700052F8045B43F8045B091FF9D150F8041B5F
:108580000029ECD130BC7047E0B501210120FFF794
:1085900071FF4020009001208DF8040000208DF82C
:1085A000050000208DF8060069460B48FFF77CFFA8
:1085B00007BD80B572B609480949086062B6FFF781
:1085C000E3FF40210448FFF7C3FF4FF47A70002116
:1085D000FFF76CFEF5E70000000002400080000895
:1085E00008ED00E010B5074979441831064C7C4489
:1085F000163404E00A68081D114488470146A14268
:10860000F8D110BD2C0000003C0000004EF688514F
:10861000CEF20001086840F470000860BFF34F8F8D
:10862000BFF36F8F4FF00070E1EE100A704700004B
:108630002BFFFFFF10000000DC0100000000002005
:108640000000000000F00DF8002801D0FFF7CAFF7D
:10865000AFF300800020AFF30080FFF7AAFF00F027
:1086600002F80120704700F001B8000007463846C4
:1086700000F002F8FBE7000080B5AFF30080024A8B
:1086800011001820ABBEFBE726000200014880471E
:1086900001480047898100089D860008AFF30080EB
:1086A000FFF7B4FFFFF7CEFFFFF7FEBFFFF7FEBFF8
:1086B000FFF7FEBFFFF7FEBFFFF7FEBFFFF7FEBFEE
:1086C000FFF7FEBFFFF7FEBFFFF7FEBFFFF7FEBFDE
:1086D000FFF7FEBFFFF7FEBFFFF7FEBFFFF7FEBFCE
:1086E000FFF7FEBFFFF7FEBFFFF7FEBFFFF7FEBFBE
:1086F000FFF7FEBFFFF7FEBFFFF7FEBFFFF7FEBFAE
:10870000FFF7FEBFFFF7FEBFFFF7FEBFFFF7FEBF9D
:10871000FFF7FEBFFFF7FEBFFFF7FEBFFFF7FEBF8D
:10872000FFF7FEBFFFF7FEBFFFF7FEBFFFF7FEBF7D
:10873000FFF7FEBFFFF7FEBFFFF7FEBFFFF7FEBF6D
:10874000FFF7FEBFFFF7FEBFFFF7FEBFFFF7FEBF5D
:10875000FFF7FEBFFFF7FEBFFFF7FEBFFFF7FEBF4D
:10876000FFF7FEBFFFF7FEBFFFF7FEBFFFF7FEBF3D
:10877000FFF7FEBFFFF7FEBFFFF7FEBFFFF7FEBF2D
:10878000FFF7FEBFFFF7FEBFFFF7FEBFFFF7FEBF1D
:10879000FFF7FEBFFFF7FEBFFFF7FEBFFFF7FEBF0D
:1087A000FFF7FEBFFFF7FEBFFFF7FEBFFFF7FEBFFD
:1087B000FFF7FEBFFFF7FEBFFFF7FEBFFFF7FEBFED
:1087C000FFF7FEBFFFF7FEBFFFF7FEBFFFF7FEBFDD
:1087D000FFF7FEBFFFF7FEBFFFF7FEBFFFF7FEBFCD
:1087E000FFF7FEBFFFF7FEBFFFF7FEBFFFF7FEBFBD
:1087F000FFF7FEBFFFF7FEBFFFF7FEBFFFF7FEBFAD
:10880000FFF7FEBFFFF7FEBFFFF7FEBFFFF7FEBF9C
:10881000FFF7FEBF00000000010203040102030491
:048820000607080936
:040000050800869DCC
:00000001FF
