:020000040800F2
:100000003828002029080008450800084908000889
:100010004D080008510800085508000800000000BD
:100020000000000000000000000000005908000867
:100030005D0800080000000061080008650800086D
:10004000690800086D0800087108000875080008B4
:10005000790800087D080008810800088508000864
:10006000890800088D080008910800089508000814
:10007000990800089D080008A1080008A5080008C4
:10008000A9080008AD080008B1080008B508000874
:10009000B9080008BD080008C1080008C508000824
:1000A000C9080008CD080008D1080008D5080008D4
:1000B000D9080008DD080008E1080008E508000884
:1000C000E9080008ED080008F1080008F508000834
:1000D000F9080008FD0800080109000805090008E2
:1000E000090900080D090008110900081509000890
:1000F000190900081D090008210900082509000840
:10010000290900082D0900083109000835090008EF
:10011000390900083D09000841090008450900089F
:10012000490900084D09000851090008550900084F
:10013000590900085D0900086109000865090008FF
:10014000690900086D0900087109000875090008AF
:10015000790900087D09000881090008850900085F
:10016000890900088D09000891090008950900080F
:10017000990900089D090008A1090008A5090008BF
:10018000A9090008AD09000801680A680A448260EC
:100190004B681344C3600831016070478168C268CE
:1001A000914209D101680B68CA188260D1F804C075
:1001B0006244C260083101608268521C826012F899
:1001C000010D704738B504460D46A068E1688842C5
:1001D00013D120686168884208BF00F0CBF821681D
:1001E000207C0A6800B14A44A26010464A68024472
:1001F000E260083190422160EBD0A068401CA06012
:1002000000F8015D31BD2DE9F84189B000F1080128
:1002100000910A460168490802EBC10300220292DC
:100220000392019300F108010268520801EBC20336
:1002300004930022017901F001018DF8201040683B
:1002400004990692400801EBC001059107920098BD
:100250000199884203D06846FFF796FF71E0059840
:100260000AB0BDE8F0810298039988420BD100984A
:1002700001680844009902904A681044039000986D
:1002800000F1080100910298401C029010F8011D35
:1002900004A8FFF797FF6D1EE5D1002C51D06846EA
:1002A000FFF77CFF0746C6F38100032804BF6846BA
:1002B000FFF774FF049D0699079E07EB002707E0F0
:1002C0003F1A083DA5F10800016840680E18314644
:1002D00055F8080C081AB842F2D37F42A41C0F4408
:1002E0002FD0B74206D155F8047B55F8040B3E18C1
:1002F000B742F8D00698079917F8018B884219D1B0
:1003000004980599884208BF00F034F80498016801
:100310009DF82000069110B101EB090006900499A8
:1003200006984A688118049A02F1080388420791E6
:100330000493E5D00698401C0690641E00F8018DD9
:10034000CFD10298039988423FF481AF6846FFF706
:1003500025FF064616F0030503D16846FFF71EFF8A
:10036000C51C34090F2C96D16846FFF717FF00F122
:100370000F0490E7012000F001B8000080B5AFF352
:100380000080024A11001820ABBEFBE726000200E5
:10039000F8B544484449016044490160F3204449A8
:1003A0000860444F444C200000F02CF83860434D66
:1003B000434800F027F82860424E3868306006E075
:1003C0000221306800F096F83068083030603068FC
:1003D00029688842F4D33C4D2C60002409E03B4856
:1003E00050F82410286800F0C5F82868001D28601F
:1003F000641CB4F5027FF2DB3548016851F000411E
:100400000160F1BD0021B0F10061B1F5804F01D272
:10041000002046E02F49411AB1F5804F01D2082053
:100420003FE02549411AB1F5804F01D2102038E054
:100430002949411AB1F5804F01D2182031E02749EE
:10044000411AB1F5803F01D220202AE01C49411A0F
:10045000B1F5003F01D2282023E02149411AB1F52E
:10046000003F01D230201CE01E49411AB1F5003F87
:1004700001D2382015E01C49411AB1F5003F01D2E4
:1004800040200EE01949411AB1F5003F01D2482041
:1004900007E01749401AB0F5003F01D2502000E0B4
:1004A00058207047043C024023016745AB89EFCDDB
:1004B0000C3C02402408002000800008280800208E
:1004C00000000208300800202C0800200000002056
:1004D000103C02400040000800C000080000010875
:1004E00000000408000006080000080800000A08D0
:1004F00000000C0870B50400002008200800C0B2FD
:10050000002801D100260EE00800C0B2012802D167
:100510004FF4807607E0C9B2022902D14FF4007689
:1005200001E04FF4407600F065F80100C9B20829F7
:100530001ED12E4D286830F440702860286806438C
:100540002E60286830F0F8002860286854F0020413
:1005500004432C60286850F48030286000F04AF88A
:10056000296831F002012960296831F0F801296019
:10057000C0B270BD70B504000D00082000F03AF85C
:100580000100C9B2082913D1184E306830F4407008
:100590003060306850F400703060306850F0010016
:1005A0003060256000F026F8316849084900316064
:1005B000C0B270BD08200E480168C90301D50120F2
:1005C00010E00168C90601D505200BE0016811F0B3
:1005D000EF0F01D0062005E00068800701D5072055
:1005E00000E00820C0B2704700000000103C02404C
:1005F0000C3C024080B508208DF80000FFF7DAFFC0
:100600008DF8000003E0FFF7D5FF8DF800009DF89E
:1006100000000128F7D09DF8000002BD80B53C48DD
:10062000016851F4700101603A49086850F0010016
:1006300008600020384A10600A68384802400A60A2
:100640003748384A1060086830F48020086000207D
:100650003549086000F005F85FF000603349086034
:1006600001BD82B000200190002000902949086857
:1006700050F480300860086810F400300090019851
:10068000401C01900098002803D10198B0F5A06F9C
:10069000F1D10868800302D50120009001E000201C
:1006A0000090009801282FD12148026852F0805212
:1006B00002602048026852F48042026016480268D4
:1006C0000260026852F400420260026852F4A052D2
:1006D0000260194A134B1A600A6852F080720A606D
:1006E0000A689201FCD540F20561144A1160016864
:1006F000890889000160016851F002010160016808
:1007000011F00C010829FAD102B070470000000076
:1007100088ED00E00038024008380240FFFFF6FE96
:1007200010300024043802400C38024008ED00E08C
:10073000403802400070004008544004003C024031
:1007400080B500200A49086000200A4908600A486C
:10075000016831F4E021016072B608480168096857
:1007600081F308880068001D00688047FEE70000EC
:1007700010E000E014E000E024ED00E0200800209C
:1007800080B5FFF705FEFFF7DBFFFEE710B5074971
:1007900079441831064C7C44163404E00A68081D7C
:1007A000114488470146A142F8D110BD2C00000039
:1007B000440000004EF68851CEF20001086840F473
:1007C00070000860BFF34F8FBFF36F8F4FF0007062
:1007D000E1EE100A704700002FFAFFFF0200000050
:1007E00002000000CC010000A40500000000002071
:1007F0003408000000F00DF8002801D0FFF7C6FF14
:10080000AFF300800020AFF30080FFF7B9FF00F0E6
:1008100002F80120704700F001B800000746384692
:10082000FFF7ACFDFBE700000148804701480047A7
:100830001D06000839080008AFF30080FFF7BAFF73
:10084000FFF7D8FFFFF7FEBFFFF7FEBFFFF7FEBFC2
:10085000FFF7FEBFFFF7FEBFFFF7FEBFFFF7FEBFCC
:10086000FFF7FEBFFFF7FEBFFFF7FEBFFFF7FEBFBC
:10087000FFF7FEBFFFF7FEBFFFF7FEBFFFF7FEBFAC
:10088000FFF7FEBFFFF7FEBFFFF7FEBFFFF7FEBF9C
:10089000FFF7FEBFFFF7FEBFFFF7FEBFFFF7FEBF8C
:1008A000FFF7FEBFFFF7FEBFFFF7FEBFFFF7FEBF7C
:1008B000FFF7FEBFFFF7FEBFFFF7FEBFFFF7FEBF6C
:1008C000FFF7FEBFFFF7FEBFFFF7FEBFFFF7FEBF5C
:1008D000FFF7FEBFFFF7FEBFFFF7FEBFFFF7FEBF4C
:1008E000FFF7FEBFFFF7FEBFFFF7FEBFFFF7FEBF3C
:1008F000FFF7FEBFFFF7FEBFFFF7FEBFFFF7FEBF2C
:10090000FFF7FEBFFFF7FEBFFFF7FEBFFFF7FEBF1B
:10091000FFF7FEBFFFF7FEBFFFF7FEBFFFF7FEBF0B
:10092000FFF7FEBFFFF7FEBFFFF7FEBFFFF7FEBFFB
:10093000FFF7FEBFFFF7FEBFFFF7FEBFFFF7FEBFEB
:10094000FFF7FEBFFFF7FEBFFFF7FEBFFFF7FEBFDB
:10095000FFF7FEBFFFF7FEBFFFF7FEBFFFF7FEBFCB
:10096000FFF7FEBFFFF7FEBFFFF7FEBFFFF7FEBFBB
:10097000FFF7FEBFFFF7FEBFFFF7FEBFFFF7FEBFAB
:10098000FFF7FEBFFFF7FEBFFFF7FEBFFFF7FEBF9B
:10099000FFF7FEBFFFF7FEBFFFF7FEBFFFF7FEBF8B
:1009A000FFF7FEBFFFF7FEBFFFF7FEBFFFF7FEBF7B
:1009B00010071020002089460008A50412A904127F
:1009C000AD0412B10412B504D2000112B91452BD23
:1009D0001812C10812C50412C90412CD0412D104A0
:1009E00012D50412D90412DD0412E10412E5041236
:1009F000E90412ED0412F10412F50412F90412FDD7
:100A0000041003014700080504120904120D041222
:100A10001104121504121904121D041221041225C6
:100A200004122904122D041231041235041239045F
:100A3000123D04124104124504124904124D0412DD
:100A40005104125504125904125D04126104126516
:100A500004126904126D04127104127504127904EF
:100A6000127D04128104128504128904128D04126D
:100A70009104129504129904129D0412A10412A566
:100A80000412A90412AD0412B10412B50412B9047F
:100A900012BD0412C10412C50412C90412CD0412FD
:100AA000D10412D50412D90412DD0412E10412E5B6
:100AB0000412E90412ED0412F10412F50412F9040F
:100AC00012FD04170148001104120904120D04203C
:100AD0002480B53C48016851F4700101603A49082E
:100AE0006850F0010008600020384A10600A683839
:100AF0004802400A6037480E2004086830F480201D
:100B00001C133549061006F005F85FF00060330C41
:100B1000200B01BD82B000200190002000902944EC
:100B20001002F480300830100810F40030009001FA
:100B300098401C1C101298002803D10198B0F5A011
:100B40006FF1D10868800302D501302301E036201F
:100B50000F009801282FD12148026852F0805202DC
:100B600060200A1004F480420260160A2302600E1C
:100B70004300420812A0201003194A134B1AA01177
:100B80002E13720A0810119201FCD540F20561146F
:100B90004A11600168890889000108100151F002BA
:100BA000D6280C016811F00C010829FAD102B070A6
:100BB0004744100788ED00E00038024008041007A1
:100BC000FFFFF6FE10300024040C220C14111C123E
:100BD0004008241C0070004008544004003C0240BF
:100BE00038B588B004000D00002D3BD1002C39D160
:100BF00072E034100131F0045E100805984FF4FAE9
:100C000051B0FBF1F10824167041433648016015DC
:100C1000E004A800F06CF8059831498842E8D23029
:100C200062712E837A712E122B2E140100202A4419
:100C30003227243201B01007C903FCD501684908E6
:100C400049C61021B4F5FA7475F1000540F2F510AB
:100C500000218D4203D301D8844200D3CDE76846FA
:100C600000F03AF80198186470010DD2176462011F
:100C7000641002F06043135A70010CE010AE620180
:100C8000AE111C260CC613200B06F206087C3C0293
:100C900009B030BD8C031006127A0010E000E01499
:100CA00004121804200210B400210232020434039A
:100CB000DFF8C42011641013002904D0042906D0E1
:100CC000082908D02BE0DFF8B4100160290812B021
:100CD00008122508100DA0402168C1F38051236837
:100CE00013F03F0300262006DFF89410B1FBF3F366
:100CF00018100388114B430726B27C1221081405F3
:100D00000141491C4900B33611A22003E0174901F3
:100D10006070200BF0010909164B595C0468CC4047
:100D200044121006F4E051890A595C4410328410D0
:100D300020106041490B595C4268CA40C26010BC37
:100D40007047C9B2A210090A490A68104308600432
:100D5000E0070A180132EA00F02B70470C29043032
:100D6000010024F4F01101132030103002F0B4001F
:100D70002202B03E2349E0012414FA03F20D681563
:100D800040954241D1032502681E00F6B276001557
:100D9000FA06F6B243026006680F791A00D2B25220
:100DA0000097403E4306600A79012A02D00A790280
:100DB0002A1AD1822C9003826086684F2C100986F3
:100DC0006042689C4032EA0404440A400A8C799CE0
:100DD00040A4B222434260C468241005954034EA1E
:100DE0000505C51052CD36100B95402C43C4605BF1
:100DF0001C102BB3D3F0DC1023426989B25140415F
:100E000061704730B40EE00268436802440830DC89
:100E10000744BFA9F10104E31852F8045B4304102E
:100E20000B091FF9D150F8041B0029ECD130383CD4
:100E300008E0B501210120FFF771FF8E03100220A9
:100E40008DF804FA30018DF80506180F0600694682
:100E50000A48FFF77CFF07BD80B50848092E100738
:100E600062B6FFF7E4FF01210418240AC4FF6420DE
:100E70000021FFF76EFEF6E73315402C01800008D5
:100E80004403101F10B5074979441831064C7C44BF
:100E9000163404E00A68081D114488470146A1423F
:100EA000F8D110BD2C2F123C04140B4EF68851CEF5
:100EB000F20001086840F4708A2C0EBFF34F8FBF18
:100EC000F36F8F4FF00070E1EE100AB20310032FA2
:100ED000FFFFFF102C3BDC018E322006100BF00DC3
:100EE000F8002801D0FFF7CAFFAFF37622200610E2
:100EF00008FFF7ACFF00F002F80120382007F001EE
:100F0000B80000074638461212FBA02380B5241C07
:100F100010024A11001820ABBEFBE72600020001B8
:100F200048804714051C0147894184051D2006415E
:100F3000461003B4FFFFF7CE04F3FFFEBF04F147F2
:100F40000425D4200201020304042802060708092C
:040F500048ED080858
:0400000508000839AE
:00000001FF
